{
  "address": "0xF9eD336C538f43B8F5b8B7d285C019bb19307a5C",
  "abi": [
    {
      "inputs": [
        {
          "internalType": "address",
          "name": "vrfCoordinatorV2",
          "type": "address"
        },
        {
          "internalType": "uint64",
          "name": "subscriptionId",
          "type": "uint64"
        },
        {
          "internalType": "bytes32",
          "name": "gasLane",
          "type": "bytes32"
        },
        {
          "internalType": "uint32",
          "name": "callbackGasLimit",
          "type": "uint32"
        },
        {
          "internalType": "string[3]",
          "name": "tokenUris",
          "type": "string[3]"
        },
        {
          "internalType": "uint256",
          "name": "mintFee",
          "type": "uint256"
        },
        {
          "internalType": "address",
          "name": "owner",
          "type": "address"
        }
      ],
      "stateMutability": "nonpayable",
      "type": "constructor"
    },
    {
      "inputs": [
        {
          "internalType": "address",
          "name": "have",
          "type": "address"
        },
        {
          "internalType": "address",
          "name": "want",
          "type": "address"
        }
      ],
      "name": "OnlyCoordinatorCanFulfill",
      "type": "error"
    },
    {
      "inputs": [],
      "name": "RandomIpfsNft__RangeOutOfBounds",
      "type": "error"
    },
    {
      "inputs": [],
      "name": "RandomIpfsNft__TransferFailed",
      "type": "error"
    },
    {
      "inputs": [],
      "name": "RandomIpfsNft__notEnoughEth",
      "type": "error"
    },
    {
      "anonymous": false,
      "inputs": [
        {
          "indexed": true,
          "internalType": "address",
          "name": "owner",
          "type": "address"
        },
        {
          "indexed": true,
          "internalType": "address",
          "name": "approved",
          "type": "address"
        },
        {
          "indexed": true,
          "internalType": "uint256",
          "name": "tokenId",
          "type": "uint256"
        }
      ],
      "name": "Approval",
      "type": "event"
    },
    {
      "anonymous": false,
      "inputs": [
        {
          "indexed": true,
          "internalType": "address",
          "name": "owner",
          "type": "address"
        },
        {
          "indexed": true,
          "internalType": "address",
          "name": "operator",
          "type": "address"
        },
        {
          "indexed": false,
          "internalType": "bool",
          "name": "approved",
          "type": "bool"
        }
      ],
      "name": "ApprovalForAll",
      "type": "event"
    },
    {
      "anonymous": false,
      "inputs": [
        {
          "indexed": false,
          "internalType": "enum RandomIpfsNft.Breed",
          "name": "dogbreed",
          "type": "uint8"
        },
        {
          "indexed": false,
          "internalType": "address",
          "name": "minter",
          "type": "address"
        }
      ],
      "name": "NftMinted",
      "type": "event"
    },
    {
      "anonymous": false,
      "inputs": [
        {
          "indexed": false,
          "internalType": "uint256",
          "name": "requestId",
          "type": "uint256"
        },
        {
          "indexed": false,
          "internalType": "address",
          "name": "requester",
          "type": "address"
        }
      ],
      "name": "NftRequested",
      "type": "event"
    },
    {
      "anonymous": false,
      "inputs": [
        {
          "indexed": true,
          "internalType": "address",
          "name": "previousOwner",
          "type": "address"
        },
        {
          "indexed": true,
          "internalType": "address",
          "name": "newOwner",
          "type": "address"
        }
      ],
      "name": "OwnershipTransferred",
      "type": "event"
    },
    {
      "anonymous": false,
      "inputs": [
        {
          "indexed": true,
          "internalType": "address",
          "name": "from",
          "type": "address"
        },
        {
          "indexed": true,
          "internalType": "address",
          "name": "to",
          "type": "address"
        },
        {
          "indexed": true,
          "internalType": "uint256",
          "name": "tokenId",
          "type": "uint256"
        }
      ],
      "name": "Transfer",
      "type": "event"
    },
    {
      "inputs": [
        {
          "internalType": "address",
          "name": "to",
          "type": "address"
        },
        {
          "internalType": "uint256",
          "name": "tokenId",
          "type": "uint256"
        }
      ],
      "name": "approve",
      "outputs": [],
      "stateMutability": "nonpayable",
      "type": "function"
    },
    {
      "inputs": [
        {
          "internalType": "address",
          "name": "owner",
          "type": "address"
        }
      ],
      "name": "balanceOf",
      "outputs": [
        {
          "internalType": "uint256",
          "name": "",
          "type": "uint256"
        }
      ],
      "stateMutability": "view",
      "type": "function"
    },
    {
      "inputs": [
        {
          "internalType": "uint256",
          "name": "_newMintFee",
          "type": "uint256"
        }
      ],
      "name": "changeMintFee",
      "outputs": [
        {
          "internalType": "uint256",
          "name": "",
          "type": "uint256"
        }
      ],
      "stateMutability": "nonpayable",
      "type": "function"
    },
    {
      "inputs": [
        {
          "internalType": "uint256",
          "name": "tokenId",
          "type": "uint256"
        }
      ],
      "name": "getApproved",
      "outputs": [
        {
          "internalType": "address",
          "name": "",
          "type": "address"
        }
      ],
      "stateMutability": "view",
      "type": "function"
    },
    {
      "inputs": [],
      "name": "getChanceArray",
      "outputs": [
        {
          "internalType": "uint256[3]",
          "name": "",
          "type": "uint256[3]"
        }
      ],
      "stateMutability": "pure",
      "type": "function"
    },
    {
      "inputs": [
        {
          "internalType": "uint256",
          "name": "index",
          "type": "uint256"
        }
      ],
      "name": "getDogTokenUris",
      "outputs": [
        {
          "internalType": "string",
          "name": "",
          "type": "string"
        }
      ],
      "stateMutability": "view",
      "type": "function"
    },
    {
      "inputs": [],
      "name": "getMintFee",
      "outputs": [
        {
          "internalType": "uint256",
          "name": "",
          "type": "uint256"
        }
      ],
      "stateMutability": "view",
      "type": "function"
    },
    {
      "inputs": [],
      "name": "getTokenCounter",
      "outputs": [
        {
          "internalType": "uint256",
          "name": "",
          "type": "uint256"
        }
      ],
      "stateMutability": "view",
      "type": "function"
    },
    {
      "inputs": [
        {
          "internalType": "address",
          "name": "owner",
          "type": "address"
        },
        {
          "internalType": "address",
          "name": "operator",
          "type": "address"
        }
      ],
      "name": "isApprovedForAll",
      "outputs": [
        {
          "internalType": "bool",
          "name": "",
          "type": "bool"
        }
      ],
      "stateMutability": "view",
      "type": "function"
    },
    {
      "inputs": [],
      "name": "name",
      "outputs": [
        {
          "internalType": "string",
          "name": "",
          "type": "string"
        }
      ],
      "stateMutability": "view",
      "type": "function"
    },
    {
      "inputs": [],
      "name": "owner",
      "outputs": [
        {
          "internalType": "address",
          "name": "",
          "type": "address"
        }
      ],
      "stateMutability": "view",
      "type": "function"
    },
    {
      "inputs": [
        {
          "internalType": "uint256",
          "name": "tokenId",
          "type": "uint256"
        }
      ],
      "name": "ownerOf",
      "outputs": [
        {
          "internalType": "address",
          "name": "",
          "type": "address"
        }
      ],
      "stateMutability": "view",
      "type": "function"
    },
    {
      "inputs": [
        {
          "internalType": "uint256",
          "name": "requestId",
          "type": "uint256"
        },
        {
          "internalType": "uint256[]",
          "name": "randomWords",
          "type": "uint256[]"
        }
      ],
      "name": "rawFulfillRandomWords",
      "outputs": [],
      "stateMutability": "nonpayable",
      "type": "function"
    },
    {
      "inputs": [],
      "name": "renounceOwnership",
      "outputs": [],
      "stateMutability": "nonpayable",
      "type": "function"
    },
    {
      "inputs": [],
      "name": "requestNft",
      "outputs": [
        {
          "internalType": "uint256",
          "name": "requestId",
          "type": "uint256"
        }
      ],
      "stateMutability": "payable",
      "type": "function"
    },
    {
      "inputs": [
        {
          "internalType": "uint256",
          "name": "",
          "type": "uint256"
        }
      ],
      "name": "s_requestToSender",
      "outputs": [
        {
          "internalType": "address",
          "name": "",
          "type": "address"
        }
      ],
      "stateMutability": "view",
      "type": "function"
    },
    {
      "inputs": [
        {
          "internalType": "address",
          "name": "from",
          "type": "address"
        },
        {
          "internalType": "address",
          "name": "to",
          "type": "address"
        },
        {
          "internalType": "uint256",
          "name": "tokenId",
          "type": "uint256"
        }
      ],
      "name": "safeTransferFrom",
      "outputs": [],
      "stateMutability": "nonpayable",
      "type": "function"
    },
    {
      "inputs": [
        {
          "internalType": "address",
          "name": "from",
          "type": "address"
        },
        {
          "internalType": "address",
          "name": "to",
          "type": "address"
        },
        {
          "internalType": "uint256",
          "name": "tokenId",
          "type": "uint256"
        },
        {
          "internalType": "bytes",
          "name": "data",
          "type": "bytes"
        }
      ],
      "name": "safeTransferFrom",
      "outputs": [],
      "stateMutability": "nonpayable",
      "type": "function"
    },
    {
      "inputs": [
        {
          "internalType": "address",
          "name": "operator",
          "type": "address"
        },
        {
          "internalType": "bool",
          "name": "approved",
          "type": "bool"
        }
      ],
      "name": "setApprovalForAll",
      "outputs": [],
      "stateMutability": "nonpayable",
      "type": "function"
    },
    {
      "inputs": [
        {
          "internalType": "bytes4",
          "name": "interfaceId",
          "type": "bytes4"
        }
      ],
      "name": "supportsInterface",
      "outputs": [
        {
          "internalType": "bool",
          "name": "",
          "type": "bool"
        }
      ],
      "stateMutability": "view",
      "type": "function"
    },
    {
      "inputs": [],
      "name": "symbol",
      "outputs": [
        {
          "internalType": "string",
          "name": "",
          "type": "string"
        }
      ],
      "stateMutability": "view",
      "type": "function"
    },
    {
      "inputs": [
        {
          "internalType": "uint256",
          "name": "tokenId",
          "type": "uint256"
        }
      ],
      "name": "tokenURI",
      "outputs": [
        {
          "internalType": "string",
          "name": "",
          "type": "string"
        }
      ],
      "stateMutability": "view",
      "type": "function"
    },
    {
      "inputs": [
        {
          "internalType": "address",
          "name": "from",
          "type": "address"
        },
        {
          "internalType": "address",
          "name": "to",
          "type": "address"
        },
        {
          "internalType": "uint256",
          "name": "tokenId",
          "type": "uint256"
        }
      ],
      "name": "transferFrom",
      "outputs": [],
      "stateMutability": "nonpayable",
      "type": "function"
    },
    {
      "inputs": [
        {
          "internalType": "address",
          "name": "newOwner",
          "type": "address"
        }
      ],
      "name": "transferOwnership",
      "outputs": [],
      "stateMutability": "nonpayable",
      "type": "function"
    },
    {
      "inputs": [],
      "name": "withdraw",
      "outputs": [],
      "stateMutability": "payable",
      "type": "function"
    }
  ],
  "transactionHash": "0xc099a96f72609eb739f8fcecfd544cf3027b4e88d5cd09f53ee0aa1753cd7fe1",
  "args": [
    "0x2Ca8E0C643bDe4C2E08ab1fA0da3401AdAD7734D",
    "1069",
    "0x79d3d8832d904592c0bf9818b621522c988bb8b0c05cdc3b15aea1b6e8db0c15",
    "50000",
    [
      "ipfs://QmaVkBn2tKmjbhphU7eyztbvSQU5EXDdqRyXZtRhSGgJGo",
      "ipfs://QmYQC5aGZu2PTH8XzbJrbDnvhj3gVs7ya33H9mqUNvST3d",
      "ipfs://QmZYmH5iDbD6v3U2ixoVAjioSzvWJszDzYdbeCLquGSpVm"
    ],
    "10000000000000000",
    "0xCe79B3Bc60684F5dC08fAc875245FaBc738eAE54"
  ],
  "numDeployments": 1,
  "solcInputHash": "4b2966e705616773ab4ff590f1e93938",
  "bytecode": "0x6101406040523480156200001257600080fd5b50604051620042ef380380620042ef833981810160405281019062000038919062000609565b866040518060400160405280600f81526020017f52616e646f6d2049504653204e667400000000000000000000000000000000008152506040518060400160405280600381526020017f52494e00000000000000000000000000000000000000000000000000000000008152508160009080519060200190620000bd929190620002dd565b508060019080519060200190620000d6929190620002dd565b5050508073ffffffffffffffffffffffffffffffffffffffff1660808173ffffffffffffffffffffffffffffffffffffffff1660601b815250505062000131620001256200020f60201b60201c565b6200021760201b60201c565b8673ffffffffffffffffffffffffffffffffffffffff1660c08173ffffffffffffffffffffffffffffffffffffffff1660601b815250508461010081815250508567ffffffffffffffff1660e08167ffffffffffffffff1660c01b815250508363ffffffff166101208163ffffffff1660e01b81525050600060098190555082600a906003620001c39291906200036e565b5081600d819055508073ffffffffffffffffffffffffffffffffffffffff1660a08173ffffffffffffffffffffffffffffffffffffffff1660601b81525050505050505050506200097b565b600033905090565b6000600760009054906101000a900473ffffffffffffffffffffffffffffffffffffffff16905081600760006101000a81548173ffffffffffffffffffffffffffffffffffffffff021916908373ffffffffffffffffffffffffffffffffffffffff1602179055508173ffffffffffffffffffffffffffffffffffffffff168173ffffffffffffffffffffffffffffffffffffffff167f8be0079c531659141344cd1fd0a4f28419497f9722a3daafe3b4186f6b6457e060405160405180910390a35050565b828054620002eb9062000805565b90600052602060002090601f0160209004810192826200030f57600085556200035b565b82601f106200032a57805160ff19168380011785556200035b565b828001600101855582156200035b579182015b828111156200035a5782518255916020019190600101906200033d565b5b5090506200036a9190620003c8565b5090565b8260038101928215620003b5579160200282015b82811115620003b4578251829080519060200190620003a3929190620002dd565b509160200191906001019062000382565b5b509050620003c49190620003e7565b5090565b5b80821115620003e3576000816000905550600101620003c9565b5090565b5b808211156200040b57600081816200040191906200040f565b50600101620003e8565b5090565b5080546200041d9062000805565b6000825580601f1062000431575062000452565b601f016020900490600052602060002090810190620004519190620003c8565b5b50565b60006200046c620004668462000704565b620006db565b90508082856020860282011115620004895762000488620008d4565b5b60005b85811015620004de57815167ffffffffffffffff811115620004b357620004b2620008cf565b5b808601620004c2898262000591565b855260208501945060208401935050506001810190506200048c565b5050509392505050565b6000620004ff620004f9846200072d565b620006db565b9050828152602081018484840111156200051e576200051d620008d9565b5b6200052b848285620007cf565b509392505050565b6000815190506200054481620008f9565b92915050565b600082601f830112620005625762000561620008cf565b5b60036200057184828562000455565b91505092915050565b6000815190506200058b8162000913565b92915050565b600082601f830112620005a957620005a8620008cf565b5b8151620005bb848260208601620004e8565b91505092915050565b600081519050620005d5816200092d565b92915050565b600081519050620005ec8162000947565b92915050565b600081519050620006038162000961565b92915050565b600080600080600080600060e0888a0312156200062b576200062a620008e3565b5b60006200063b8a828b0162000533565b97505060206200064e8a828b01620005f2565b9650506040620006618a828b016200057a565b9550506060620006748a828b01620005db565b945050608088015167ffffffffffffffff811115620006985762000697620008de565b5b620006a68a828b016200054a565b93505060a0620006b98a828b01620005c4565b92505060c0620006cc8a828b0162000533565b91505092959891949750929550565b6000620006e7620006fa565b9050620006f582826200083b565b919050565b6000604051905090565b600067ffffffffffffffff821115620007225762000721620008a0565b5b602082029050919050565b600067ffffffffffffffff8211156200074b576200074a620008a0565b5b6200075682620008e8565b9050602081019050919050565b6000620007708262000781565b9050919050565b6000819050919050565b600073ffffffffffffffffffffffffffffffffffffffff82169050919050565b6000819050919050565b600063ffffffff82169050919050565b600067ffffffffffffffff82169050919050565b60005b83811015620007ef578082015181840152602081019050620007d2565b83811115620007ff576000848401525b50505050565b600060028204905060018216806200081e57607f821691505b6020821081141562000835576200083462000871565b5b50919050565b6200084682620008e8565b810181811067ffffffffffffffff82111715620008685762000867620008a0565b5b80604052505050565b7f4e487b7100000000000000000000000000000000000000000000000000000000600052602260045260246000fd5b7f4e487b7100000000000000000000000000000000000000000000000000000000600052604160045260246000fd5b600080fd5b600080fd5b600080fd5b600080fd5b600080fd5b6000601f19601f8301169050919050565b620009048162000763565b81146200091057600080fd5b50565b6200091e8162000777565b81146200092a57600080fd5b50565b6200093881620007a1565b81146200094457600080fd5b50565b6200095281620007ab565b81146200095e57600080fd5b50565b6200096c81620007bb565b81146200097857600080fd5b50565b60805160601c60a05160601c60c05160601c60e05160c01c610100516101205160e01c613911620009de6000396000610edf01526000610e9b01526000610ebc01526000610e5f015260005050600081816108c4015261091801526139116000f3fe6080604052600436106101665760003560e01c80636e02007d116100d1578063a22cb4651161008a578063c87b56dd11610064578063c87b56dd14610510578063e929d6691461054d578063e985e9c51461058a578063f2fde38b146105c757610166565b8063a22cb465146104a0578063aa152491146104c9578063b88d4fde146104e757610166565b80636e02007d146103a057806370a08231146103cb578063715018a6146104085780637a5caab31461041f5780638da5cb5b1461044a57806395d89b411461047557610166565b80632e602d29116101235780632e602d291461028b5780633af25975146102c85780633ccfd60b1461030557806342842e0e1461030f5780635dacf5f4146103385780636352211e1461036357610166565b806301ffc9a71461016b57806306fdde03146101a8578063081812fc146101d3578063095ea7b3146102105780631fe543e31461023957806323b872dd14610262575b600080fd5b34801561017757600080fd5b50610192600480360381019061018d919061278d565b6105f0565b60405161019f9190612d27565b60405180910390f35b3480156101b457600080fd5b506101bd6106d2565b6040516101ca9190612dbe565b60405180910390f35b3480156101df57600080fd5b506101fa60048036038101906101f591906127e7565b610764565b6040516102079190612c7c565b60405180910390f35b34801561021c57600080fd5b506102376004803603810190610232919061274d565b6107aa565b005b34801561024557600080fd5b50610260600480360381019061025b9190612841565b6108c2565b005b34801561026e57600080fd5b5061028960048036038101906102849190612637565b610982565b005b34801561029757600080fd5b506102b260048036038101906102ad91906127e7565b6109e2565b6040516102bf9190612c7c565b60405180910390f35b3480156102d457600080fd5b506102ef60048036038101906102ea91906127e7565b610a15565b6040516102fc9190612dbe565b60405180910390f35b61030d610abc565b005b34801561031b57600080fd5b5061033660048036038101906103319190612637565b610b70565b005b34801561034457600080fd5b5061034d610b90565b60405161035a9190612d0c565b60405180910390f35b34801561036f57600080fd5b5061038a600480360381019061038591906127e7565b610bbb565b6040516103979190612c7c565b60405180910390f35b3480156103ac57600080fd5b506103b5610c6d565b6040516103c29190612fa0565b60405180910390f35b3480156103d757600080fd5b506103f260048036038101906103ed91906125ca565b610c77565b6040516103ff9190612fa0565b60405180910390f35b34801561041457600080fd5b5061041d610d2f565b005b34801561042b57600080fd5b50610434610d43565b6040516104419190612fa0565b60405180910390f35b34801561045657600080fd5b5061045f610d4d565b60405161046c9190612c7c565b60405180910390f35b34801561048157600080fd5b5061048a610d77565b6040516104979190612dbe565b60405180910390f35b3480156104ac57600080fd5b506104c760048036038101906104c2919061270d565b610e09565b005b6104d1610e1f565b6040516104de9190612fa0565b60405180910390f35b3480156104f357600080fd5b5061050e6004803603810190610509919061268a565b611002565b005b34801561051c57600080fd5b50610537600480360381019061053291906127e7565b611064565b6040516105449190612dbe565b60405180910390f35b34801561055957600080fd5b50610574600480360381019061056f91906127e7565b611177565b6040516105819190612fa0565b60405180910390f35b34801561059657600080fd5b506105b160048036038101906105ac91906125f7565b611192565b6040516105be9190612d27565b60405180910390f35b3480156105d357600080fd5b506105ee60048036038101906105e991906125ca565b611226565b005b60007f80ac58cd000000000000000000000000000000000000000000000000000000007bffffffffffffffffffffffffffffffffffffffffffffffffffffffff1916827bffffffffffffffffffffffffffffffffffffffffffffffffffffffff191614806106bb57507f5b5e139f000000000000000000000000000000000000000000000000000000007bffffffffffffffffffffffffffffffffffffffffffffffffffffffff1916827bffffffffffffffffffffffffffffffffffffffffffffffffffffffff1916145b806106cb57506106ca826112aa565b5b9050919050565b6060600080546106e1906132b3565b80601f016020809104026020016040519081016040528092919081815260200182805461070d906132b3565b801561075a5780601f1061072f5761010080835404028352916020019161075a565b820191906000526020600020905b81548152906001019060200180831161073d57829003601f168201915b5050505050905090565b600061076f82611314565b6004600083815260200190815260200160002060009054906101000a900473ffffffffffffffffffffffffffffffffffffffff169050919050565b60006107b582610bbb565b90508073ffffffffffffffffffffffffffffffffffffffff168373ffffffffffffffffffffffffffffffffffffffff161415610826576040517f08c379a000000000000000000000000000000000000000000000000000000000815260040161081d90612f60565b60405180910390fd5b8073ffffffffffffffffffffffffffffffffffffffff1661084561135f565b73ffffffffffffffffffffffffffffffffffffffff16148061087457506108738161086e61135f565b611192565b5b6108b3576040517f08c379a00000000000000000000000000000000000000000000000000000000081526004016108aa90612ee0565b60405180910390fd5b6108bd8383611367565b505050565b7f000000000000000000000000000000000000000000000000000000000000000073ffffffffffffffffffffffffffffffffffffffff163373ffffffffffffffffffffffffffffffffffffffff161461097457337f00000000000000000000000000000000000000000000000000000000000000006040517f1cf993f400000000000000000000000000000000000000000000000000000000815260040161096b929190612c97565b60405180910390fd5b61097e8282611420565b5050565b61099361098d61135f565b826115b6565b6109d2576040517f08c379a00000000000000000000000000000000000000000000000000000000081526004016109c990612f80565b60405180910390fd5b6109dd83838361164b565b505050565b60086020528060005260406000206000915054906101000a900473ffffffffffffffffffffffffffffffffffffffff1681565b6060600a8260038110610a2b57610a2a61344c565b5b018054610a37906132b3565b80601f0160208091040260200160405190810160405280929190818152602001828054610a63906132b3565b8015610ab05780601f10610a8557610100808354040283529160200191610ab0565b820191906000526020600020905b815481529060010190602001808311610a9357829003601f168201915b50505050509050919050565b610ac46118b2565b600047905060003373ffffffffffffffffffffffffffffffffffffffff1682604051610aef90612c67565b60006040518083038185875af1925050503d8060008114610b2c576040519150601f19603f3d011682016040523d82523d6000602084013e610b31565b606091505b5050905080610b6c576040517fca7e25b700000000000000000000000000000000000000000000000000000000815260040160405180910390fd5b5050565b610b8b83838360405180602001604052806000815250611002565b505050565b610b98612379565b6040518060600160405280600a8152602001601e8152602001603c815250905090565b6000806002600084815260200190815260200160002060009054906101000a900473ffffffffffffffffffffffffffffffffffffffff169050600073ffffffffffffffffffffffffffffffffffffffff168173ffffffffffffffffffffffffffffffffffffffff161415610c64576040517f08c379a0000000000000000000000000000000000000000000000000000000008152600401610c5b90612f40565b60405180910390fd5b80915050919050565b6000600954905090565b60008073ffffffffffffffffffffffffffffffffffffffff168273ffffffffffffffffffffffffffffffffffffffff161415610ce8576040517f08c379a0000000000000000000000000000000000000000000000000000000008152600401610cdf90612ea0565b60405180910390fd5b600360008373ffffffffffffffffffffffffffffffffffffffff1673ffffffffffffffffffffffffffffffffffffffff168152602001908152602001600020549050919050565b610d376118b2565b610d416000611930565b565b6000600d54905090565b6000600760009054906101000a900473ffffffffffffffffffffffffffffffffffffffff16905090565b606060018054610d86906132b3565b80601f0160208091040260200160405190810160405280929190818152602001828054610db2906132b3565b8015610dff5780601f10610dd457610100808354040283529160200191610dff565b820191906000526020600020905b815481529060010190602001808311610de257829003601f168201915b5050505050905090565b610e1b610e1461135f565b83836119f6565b5050565b6000600d54341015610e5d576040517f291261ff00000000000000000000000000000000000000000000000000000000815260040160405180910390fd5b7f000000000000000000000000000000000000000000000000000000000000000073ffffffffffffffffffffffffffffffffffffffff16635d3b1d307f00000000000000000000000000000000000000000000000000000000000000007f000000000000000000000000000000000000000000000000000000000000000060037f000000000000000000000000000000000000000000000000000000000000000060016040518663ffffffff1660e01b8152600401610f20959493929190612d42565b602060405180830381600087803b158015610f3a57600080fd5b505af1158015610f4e573d6000803e3d6000fd5b505050506040513d601f19601f82011682018060405250810190610f729190612814565b9050336008600083815260200190815260200160002060006101000a81548173ffffffffffffffffffffffffffffffffffffffff021916908373ffffffffffffffffffffffffffffffffffffffff1602179055507ff873236e6cc0ecc5be1a9a35c95ee5b8d1ac4cc7bfef0cc5060391d6cc98e26b8133604051610ff7929190612fbb565b60405180910390a190565b61101361100d61135f565b836115b6565b611052576040517f08c379a000000000000000000000000000000000000000000000000000000000815260040161104990612f80565b60405180910390fd5b61105e84848484611b63565b50505050565b606061106f82611314565b600060066000848152602001908152602001600020805461108f906132b3565b80601f01602080910402602001604051908101604052809291908181526020018280546110bb906132b3565b80156111085780601f106110dd57610100808354040283529160200191611108565b820191906000526020600020905b8154815290600101906020018083116110eb57829003601f168201915b505050505090506000611119611bbf565b905060008151141561112f578192505050611172565b60008251111561116457808260405160200161114c929190612c43565b60405160208183030381529060405292505050611172565b61116d84611bd6565b925050505b919050565b60006111816118b2565b81600d81905550600d549050919050565b6000600560008473ffffffffffffffffffffffffffffffffffffffff1673ffffffffffffffffffffffffffffffffffffffff16815260200190815260200160002060008373ffffffffffffffffffffffffffffffffffffffff1673ffffffffffffffffffffffffffffffffffffffff16815260200190815260200160002060009054906101000a900460ff16905092915050565b61122e6118b2565b600073ffffffffffffffffffffffffffffffffffffffff168173ffffffffffffffffffffffffffffffffffffffff16141561129e576040517f08c379a000000000000000000000000000000000000000000000000000000000815260040161129590612e00565b60405180910390fd5b6112a781611930565b50565b60007f01ffc9a7000000000000000000000000000000000000000000000000000000007bffffffffffffffffffffffffffffffffffffffffffffffffffffffff1916827bffffffffffffffffffffffffffffffffffffffffffffffffffffffff1916149050919050565b61131d81611c3e565b61135c576040517f08c379a000000000000000000000000000000000000000000000000000000000815260040161135390612f40565b60405180910390fd5b50565b600033905090565b816004600083815260200190815260200160002060006101000a81548173ffffffffffffffffffffffffffffffffffffffff021916908373ffffffffffffffffffffffffffffffffffffffff160217905550808273ffffffffffffffffffffffffffffffffffffffff166113da83610bbb565b73ffffffffffffffffffffffffffffffffffffffff167f8c5be1e5ebec7d5bd14f71427d1e84f3dd0314c0f7b2291e5b200ac8c7c3b92560405160405180910390a45050565b60006008600084815260200190815260200160002060009054906101000a900473ffffffffffffffffffffffffffffffffffffffff169050600060095490506000603c846000815181106114775761147661344c565b5b6020026020010151611489919061335f565b9050600061149682611caa565b90506114a28484611d8d565b6001600960008282546114b591906130e1565b9250508190555061157583600a8360028111156114d5576114d46133ee565b5b600381106114e6576114e561344c565b5b0180546114f2906132b3565b80601f016020809104026020016040519081016040528092919081815260200182805461151e906132b3565b801561156b5780601f106115405761010080835404028352916020019161156b565b820191906000526020600020905b81548152906001019060200180831161154e57829003601f168201915b5050505050611dab565b7f8a269f26b688e110e9cbd887d163dab35cae678fa353a0292de532c0cac1ecdc81856040516115a6929190612d95565b60405180910390a1505050505050565b6000806115c283610bbb565b90508073ffffffffffffffffffffffffffffffffffffffff168473ffffffffffffffffffffffffffffffffffffffff16148061160457506116038185611192565b5b8061164257508373ffffffffffffffffffffffffffffffffffffffff1661162a84610764565b73ffffffffffffffffffffffffffffffffffffffff16145b91505092915050565b8273ffffffffffffffffffffffffffffffffffffffff1661166b82610bbb565b73ffffffffffffffffffffffffffffffffffffffff16146116c1576040517f08c379a00000000000000000000000000000000000000000000000000000000081526004016116b890612e20565b60405180910390fd5b600073ffffffffffffffffffffffffffffffffffffffff168273ffffffffffffffffffffffffffffffffffffffff161415611731576040517f08c379a000000000000000000000000000000000000000000000000000000000815260040161172890612e60565b60405180910390fd5b61173c838383611e1f565b611747600082611367565b6001600360008573ffffffffffffffffffffffffffffffffffffffff1673ffffffffffffffffffffffffffffffffffffffff16815260200190815260200160002060008282546117979190613168565b925050819055506001600360008473ffffffffffffffffffffffffffffffffffffffff1673ffffffffffffffffffffffffffffffffffffffff16815260200190815260200160002060008282546117ee91906130e1565b92505081905550816002600083815260200190815260200160002060006101000a81548173ffffffffffffffffffffffffffffffffffffffff021916908373ffffffffffffffffffffffffffffffffffffffff160217905550808273ffffffffffffffffffffffffffffffffffffffff168473ffffffffffffffffffffffffffffffffffffffff167fddf252ad1be2c89b69c2b068fc378daa952ba7f163c4a11628f55a4df523b3ef60405160405180910390a46118ad838383611e24565b505050565b6118ba61135f565b73ffffffffffffffffffffffffffffffffffffffff166118d8610d4d565b73ffffffffffffffffffffffffffffffffffffffff161461192e576040517f08c379a000000000000000000000000000000000000000000000000000000000815260040161192590612f20565b60405180910390fd5b565b6000600760009054906101000a900473ffffffffffffffffffffffffffffffffffffffff16905081600760006101000a81548173ffffffffffffffffffffffffffffffffffffffff021916908373ffffffffffffffffffffffffffffffffffffffff1602179055508173ffffffffffffffffffffffffffffffffffffffff168173ffffffffffffffffffffffffffffffffffffffff167f8be0079c531659141344cd1fd0a4f28419497f9722a3daafe3b4186f6b6457e060405160405180910390a35050565b8173ffffffffffffffffffffffffffffffffffffffff168373ffffffffffffffffffffffffffffffffffffffff161415611a65576040517f08c379a0000000000000000000000000000000000000000000000000000000008152600401611a5c90612e80565b60405180910390fd5b80600560008573ffffffffffffffffffffffffffffffffffffffff1673ffffffffffffffffffffffffffffffffffffffff16815260200190815260200160002060008473ffffffffffffffffffffffffffffffffffffffff1673ffffffffffffffffffffffffffffffffffffffff16815260200190815260200160002060006101000a81548160ff0219169083151502179055508173ffffffffffffffffffffffffffffffffffffffff168373ffffffffffffffffffffffffffffffffffffffff167f17307eab39ab6107e8899845ad3d59bd9653f200f220920489ca2b5937696c3183604051611b569190612d27565b60405180910390a3505050565b611b6e84848461164b565b611b7a84848484611e29565b611bb9576040517f08c379a0000000000000000000000000000000000000000000000000000000008152600401611bb090612de0565b60405180910390fd5b50505050565b606060405180602001604052806000815250905090565b6060611be182611314565b6000611beb611bbf565b90506000815111611c0b5760405180602001604052806000815250611c36565b80611c1584611fc0565b604051602001611c26929190612c43565b6040516020818303038152906040525b915050919050565b60008073ffffffffffffffffffffffffffffffffffffffff166002600084815260200190815260200160002060009054906101000a900473ffffffffffffffffffffffffffffffffffffffff1673ffffffffffffffffffffffffffffffffffffffff1614159050919050565b600080600090506000611cbb610b90565b905060005b6003811015611d5557828510158015611cfa5750818160038110611ce757611ce661344c565b5b602002015183611cf791906130e1565b85105b15611d1d5760016002811115611d1357611d126133ee565b5b9350505050611d88565b818160038110611d3057611d2f61344c565b5b602002015183611d4091906130e1565b92508080611d4d90613316565b915050611cc0565b506040517f12806c9d00000000000000000000000000000000000000000000000000000000815260040160405180910390fd5b919050565b611da7828260405180602001604052806000815250612121565b5050565b611db482611c3e565b611df3576040517f08c379a0000000000000000000000000000000000000000000000000000000008152600401611dea90612ec0565b60405180910390fd5b80600660008481526020019081526020016000209080519060200190611e1a92919061239b565b505050565b505050565b505050565b6000611e4a8473ffffffffffffffffffffffffffffffffffffffff1661217c565b15611fb3578373ffffffffffffffffffffffffffffffffffffffff1663150b7a02611e7361135f565b8786866040518563ffffffff1660e01b8152600401611e959493929190612cc0565b602060405180830381600087803b158015611eaf57600080fd5b505af1925050508015611ee057506040513d601f19601f82011682018060405250810190611edd91906127ba565b60015b611f63573d8060008114611f10576040519150601f19603f3d011682016040523d82523d6000602084013e611f15565b606091505b50600081511415611f5b576040517f08c379a0000000000000000000000000000000000000000000000000000000008152600401611f5290612de0565b60405180910390fd5b805181602001fd5b63150b7a0260e01b7bffffffffffffffffffffffffffffffffffffffffffffffffffffffff1916817bffffffffffffffffffffffffffffffffffffffffffffffffffffffff191614915050611fb8565b600190505b949350505050565b60606000821415612008576040518060400160405280600181526020017f3000000000000000000000000000000000000000000000000000000000000000815250905061211c565b600082905060005b6000821461203a57808061202390613316565b915050600a826120339190613137565b9150612010565b60008167ffffffffffffffff8111156120565761205561347b565b5b6040519080825280601f01601f1916602001820160405280156120885781602001600182028036833780820191505090505b5090505b60008514612115576001826120a19190613168565b9150600a856120b0919061335f565b60306120bc91906130e1565b60f81b8183815181106120d2576120d161344c565b5b60200101907effffffffffffffffffffffffffffffffffffffffffffffffffffffffffffff1916908160001a905350600a8561210e9190613137565b945061208c565b8093505050505b919050565b61212b838361219f565b6121386000848484611e29565b612177576040517f08c379a000000000000000000000000000000000000000000000000000000000815260040161216e90612de0565b60405180910390fd5b505050565b6000808273ffffffffffffffffffffffffffffffffffffffff163b119050919050565b600073ffffffffffffffffffffffffffffffffffffffff168273ffffffffffffffffffffffffffffffffffffffff16141561220f576040517f08c379a000000000000000000000000000000000000000000000000000000000815260040161220690612f00565b60405180910390fd5b61221881611c3e565b15612258576040517f08c379a000000000000000000000000000000000000000000000000000000000815260040161224f90612e40565b60405180910390fd5b61226460008383611e1f565b6001600360008473ffffffffffffffffffffffffffffffffffffffff1673ffffffffffffffffffffffffffffffffffffffff16815260200190815260200160002060008282546122b491906130e1565b92505081905550816002600083815260200190815260200160002060006101000a81548173ffffffffffffffffffffffffffffffffffffffff021916908373ffffffffffffffffffffffffffffffffffffffff160217905550808273ffffffffffffffffffffffffffffffffffffffff16600073ffffffffffffffffffffffffffffffffffffffff167fddf252ad1be2c89b69c2b068fc378daa952ba7f163c4a11628f55a4df523b3ef60405160405180910390a461237560008383611e24565b5050565b6040518060600160405280600390602082028036833780820191505090505090565b8280546123a7906132b3565b90600052602060002090601f0160209004810192826123c95760008555612410565b82601f106123e257805160ff1916838001178555612410565b82800160010185558215612410579182015b8281111561240f5782518255916020019190600101906123f4565b5b50905061241d9190612421565b5090565b5b8082111561243a576000816000905550600101612422565b5090565b600061245161244c84613009565b612fe4565b90508083825260208201905082856020860282011115612474576124736134af565b5b60005b858110156124a4578161248a88826125a0565b845260208401935060208301925050600181019050612477565b5050509392505050565b60006124c16124bc84613035565b612fe4565b9050828152602081018484840111156124dd576124dc6134b4565b5b6124e8848285613271565b509392505050565b6000813590506124ff8161387f565b92915050565b600082601f83011261251a576125196134aa565b5b813561252a84826020860161243e565b91505092915050565b60008135905061254281613896565b92915050565b600081359050612557816138ad565b92915050565b60008151905061256c816138ad565b92915050565b600082601f830112612587576125866134aa565b5b81356125978482602086016124ae565b91505092915050565b6000813590506125af816138c4565b92915050565b6000815190506125c4816138c4565b92915050565b6000602082840312156125e0576125df6134be565b5b60006125ee848285016124f0565b91505092915050565b6000806040838503121561260e5761260d6134be565b5b600061261c858286016124f0565b925050602061262d858286016124f0565b9150509250929050565b6000806000606084860312156126505761264f6134be565b5b600061265e868287016124f0565b935050602061266f868287016124f0565b9250506040612680868287016125a0565b9150509250925092565b600080600080608085870312156126a4576126a36134be565b5b60006126b2878288016124f0565b94505060206126c3878288016124f0565b93505060406126d4878288016125a0565b925050606085013567ffffffffffffffff8111156126f5576126f46134b9565b5b61270187828801612572565b91505092959194509250565b60008060408385031215612724576127236134be565b5b6000612732858286016124f0565b925050602061274385828601612533565b9150509250929050565b60008060408385031215612764576127636134be565b5b6000612772858286016124f0565b9250506020612783858286016125a0565b9150509250929050565b6000602082840312156127a3576127a26134be565b5b60006127b184828501612548565b91505092915050565b6000602082840312156127d0576127cf6134be565b5b60006127de8482850161255d565b91505092915050565b6000602082840312156127fd576127fc6134be565b5b600061280b848285016125a0565b91505092915050565b60006020828403121561282a576128296134be565b5b6000612838848285016125b5565b91505092915050565b60008060408385031215612858576128576134be565b5b6000612866858286016125a0565b925050602083013567ffffffffffffffff811115612887576128866134b9565b5b61289385828601612505565b9150509250929050565b60006128a98383612c07565b60208301905092915050565b6128be8161319c565b82525050565b6128cd81613070565b6128d7818461309e565b92506128e282613066565b8060005b838110156129135781516128fa878261289d565b965061290583613091565b9250506001810190506128e6565b505050505050565b612924816131ae565b82525050565b612933816131ba565b82525050565b60006129448261307b565b61294e81856130a9565b935061295e818560208601613280565b612967816134c3565b840191505092915050565b61297b8161325f565b82525050565b600061298c82613086565b61299681856130c5565b93506129a6818560208601613280565b6129af816134c3565b840191505092915050565b60006129c582613086565b6129cf81856130d6565b93506129df818560208601613280565b80840191505092915050565b60006129f86032836130c5565b9150612a03826134d4565b604082019050919050565b6000612a1b6026836130c5565b9150612a2682613523565b604082019050919050565b6000612a3e6025836130c5565b9150612a4982613572565b604082019050919050565b6000612a61601c836130c5565b9150612a6c826135c1565b602082019050919050565b6000612a846024836130c5565b9150612a8f826135ea565b604082019050919050565b6000612aa76019836130c5565b9150612ab282613639565b602082019050919050565b6000612aca6029836130c5565b9150612ad582613662565b604082019050919050565b6000612aed602e836130c5565b9150612af8826136b1565b604082019050919050565b6000612b10603e836130c5565b9150612b1b82613700565b604082019050919050565b6000612b336020836130c5565b9150612b3e8261374f565b602082019050919050565b6000612b566020836130c5565b9150612b6182613778565b602082019050919050565b6000612b796018836130c5565b9150612b84826137a1565b602082019050919050565b6000612b9c6021836130c5565b9150612ba7826137ca565b604082019050919050565b6000612bbf6000836130ba565b9150612bca82613819565b600082019050919050565b6000612be2602e836130c5565b9150612bed8261381c565b604082019050919050565b612c0181613203565b82525050565b612c1081613231565b82525050565b612c1f81613231565b82525050565b612c2e8161323b565b82525050565b612c3d8161324b565b82525050565b6000612c4f82856129ba565b9150612c5b82846129ba565b91508190509392505050565b6000612c7282612bb2565b9150819050919050565b6000602082019050612c9160008301846128b5565b92915050565b6000604082019050612cac60008301856128b5565b612cb960208301846128b5565b9392505050565b6000608082019050612cd560008301876128b5565b612ce260208301866128b5565b612cef6040830185612c16565b8181036060830152612d018184612939565b905095945050505050565b6000606082019050612d2160008301846128c4565b92915050565b6000602082019050612d3c600083018461291b565b92915050565b600060a082019050612d57600083018861292a565b612d646020830187612c34565b612d716040830186612bf8565b612d7e6060830185612c25565b612d8b6080830184612c25565b9695505050505050565b6000604082019050612daa6000830185612972565b612db760208301846128b5565b9392505050565b60006020820190508181036000830152612dd88184612981565b905092915050565b60006020820190508181036000830152612df9816129eb565b9050919050565b60006020820190508181036000830152612e1981612a0e565b9050919050565b60006020820190508181036000830152612e3981612a31565b9050919050565b60006020820190508181036000830152612e5981612a54565b9050919050565b60006020820190508181036000830152612e7981612a77565b9050919050565b60006020820190508181036000830152612e9981612a9a565b9050919050565b60006020820190508181036000830152612eb981612abd565b9050919050565b60006020820190508181036000830152612ed981612ae0565b9050919050565b60006020820190508181036000830152612ef981612b03565b9050919050565b60006020820190508181036000830152612f1981612b26565b9050919050565b60006020820190508181036000830152612f3981612b49565b9050919050565b60006020820190508181036000830152612f5981612b6c565b9050919050565b60006020820190508181036000830152612f7981612b8f565b9050919050565b60006020820190508181036000830152612f9981612bd5565b9050919050565b6000602082019050612fb56000830184612c16565b92915050565b6000604082019050612fd06000830185612c16565b612fdd60208301846128b5565b9392505050565b6000612fee612fff565b9050612ffa82826132e5565b919050565b6000604051905090565b600067ffffffffffffffff8211156130245761302361347b565b5b602082029050602081019050919050565b600067ffffffffffffffff8211156130505761304f61347b565b5b613059826134c3565b9050602081019050919050565b6000819050919050565b600060039050919050565b600081519050919050565b600081519050919050565b6000602082019050919050565b600081905092915050565b600082825260208201905092915050565b600081905092915050565b600082825260208201905092915050565b600081905092915050565b60006130ec82613231565b91506130f783613231565b9250827fffffffffffffffffffffffffffffffffffffffffffffffffffffffffffffffff0382111561312c5761312b613390565b5b828201905092915050565b600061314282613231565b915061314d83613231565b92508261315d5761315c6133bf565b5b828204905092915050565b600061317382613231565b915061317e83613231565b92508282101561319157613190613390565b5b828203905092915050565b60006131a782613211565b9050919050565b60008115159050919050565b6000819050919050565b60007fffffffff0000000000000000000000000000000000000000000000000000000082169050919050565b60008190506131fe8261386b565b919050565b600061ffff82169050919050565b600073ffffffffffffffffffffffffffffffffffffffff82169050919050565b6000819050919050565b600063ffffffff82169050919050565b600067ffffffffffffffff82169050919050565b600061326a826131f0565b9050919050565b82818337600083830152505050565b60005b8381101561329e578082015181840152602081019050613283565b838111156132ad576000848401525b50505050565b600060028204905060018216806132cb57607f821691505b602082108114156132df576132de61341d565b5b50919050565b6132ee826134c3565b810181811067ffffffffffffffff8211171561330d5761330c61347b565b5b80604052505050565b600061332182613231565b91507fffffffffffffffffffffffffffffffffffffffffffffffffffffffffffffffff82141561335457613353613390565b5b600182019050919050565b600061336a82613231565b915061337583613231565b925082613385576133846133bf565b5b828206905092915050565b7f4e487b7100000000000000000000000000000000000000000000000000000000600052601160045260246000fd5b7f4e487b7100000000000000000000000000000000000000000000000000000000600052601260045260246000fd5b7f4e487b7100000000000000000000000000000000000000000000000000000000600052602160045260246000fd5b7f4e487b7100000000000000000000000000000000000000000000000000000000600052602260045260246000fd5b7f4e487b7100000000000000000000000000000000000000000000000000000000600052603260045260246000fd5b7f4e487b7100000000000000000000000000000000000000000000000000000000600052604160045260246000fd5b600080fd5b600080fd5b600080fd5b600080fd5b600080fd5b6000601f19601f8301169050919050565b7f4552433732313a207472616e7366657220746f206e6f6e20455243373231526560008201527f63656976657220696d706c656d656e7465720000000000000000000000000000602082015250565b7f4f776e61626c653a206e6577206f776e657220697320746865207a65726f206160008201527f6464726573730000000000000000000000000000000000000000000000000000602082015250565b7f4552433732313a207472616e736665722066726f6d20696e636f72726563742060008201527f6f776e6572000000000000000000000000000000000000000000000000000000602082015250565b7f4552433732313a20746f6b656e20616c7265616479206d696e74656400000000600082015250565b7f4552433732313a207472616e7366657220746f20746865207a65726f2061646460008201527f7265737300000000000000000000000000000000000000000000000000000000602082015250565b7f4552433732313a20617070726f766520746f2063616c6c657200000000000000600082015250565b7f4552433732313a2061646472657373207a65726f206973206e6f74206120766160008201527f6c6964206f776e65720000000000000000000000000000000000000000000000602082015250565b7f45524337323155524953746f726167653a2055524920736574206f66206e6f6e60008201527f6578697374656e7420746f6b656e000000000000000000000000000000000000602082015250565b7f4552433732313a20617070726f76652063616c6c6572206973206e6f7420746f60008201527f6b656e206f776e6572206e6f7220617070726f76656420666f7220616c6c0000602082015250565b7f4552433732313a206d696e7420746f20746865207a65726f2061646472657373600082015250565b7f4f776e61626c653a2063616c6c6572206973206e6f7420746865206f776e6572600082015250565b7f4552433732313a20696e76616c696420746f6b656e2049440000000000000000600082015250565b7f4552433732313a20617070726f76616c20746f2063757272656e74206f776e6560008201527f7200000000000000000000000000000000000000000000000000000000000000602082015250565b50565b7f4552433732313a2063616c6c6572206973206e6f7420746f6b656e206f776e6560008201527f72206e6f7220617070726f766564000000000000000000000000000000000000602082015250565b6003811061387c5761387b6133ee565b5b50565b6138888161319c565b811461389357600080fd5b50565b61389f816131ae565b81146138aa57600080fd5b50565b6138b6816131c4565b81146138c157600080fd5b50565b6138cd81613231565b81146138d857600080fd5b5056fea264697066735822122000a5740f4afea99694c294644cf2666eacb0a7bf7324aa9161ef17a58a55727464736f6c63430008070033",
  "devdoc": {
    "errors": {
      "RandomIpfsNft__RangeOutOfBounds()": [
        {
          "details": "we are using Chainlink VRF v2"
        }
      ]
    },
    "kind": "dev",
    "methods": {
      "approve(address,uint256)": {
        "details": "See {IERC721-approve}."
      },
      "balanceOf(address)": {
        "details": "See {IERC721-balanceOf}."
      },
      "getApproved(uint256)": {
        "details": "See {IERC721-getApproved}."
      },
      "isApprovedForAll(address,address)": {
        "details": "See {IERC721-isApprovedForAll}."
      },
      "name()": {
        "details": "See {IERC721Metadata-name}."
      },
      "owner()": {
        "details": "Returns the address of the current owner."
      },
      "ownerOf(uint256)": {
        "details": "See {IERC721-ownerOf}."
      },
      "renounceOwnership()": {
        "details": "Leaves the contract without owner. It will not be possible to call `onlyOwner` functions anymore. Can only be called by the current owner. NOTE: Renouncing ownership will leave the contract without an owner, thereby removing any functionality that is only available to the owner."
      },
      "safeTransferFrom(address,address,uint256)": {
        "details": "See {IERC721-safeTransferFrom}."
      },
      "safeTransferFrom(address,address,uint256,bytes)": {
        "details": "See {IERC721-safeTransferFrom}."
      },
      "setApprovalForAll(address,bool)": {
        "details": "See {IERC721-setApprovalForAll}."
      },
      "supportsInterface(bytes4)": {
        "details": "See {IERC165-supportsInterface}."
      },
      "symbol()": {
        "details": "See {IERC721Metadata-symbol}."
      },
      "tokenURI(uint256)": {
        "details": "See {IERC721Metadata-tokenURI}."
      },
      "transferFrom(address,address,uint256)": {
        "details": "See {IERC721-transferFrom}."
      },
      "transferOwnership(address)": {
        "details": "Transfers ownership of the contract to a new account (`newOwner`). Can only be called by the current owner."
      },
      "withdraw()": {
        "details": "we could have declared our own onlyOwner identifier has you can see in the comment above or use openzeppelin api"
      }
    },
    "version": 1
  },
  "userdoc": {
    "errors": {
      "RandomIpfsNft__RangeOutOfBounds()": [
        {
          "notice": "when we mint and NFT we will trigger a chainlink VRF call to get us a random number using that number we will get a random NFT Users must pay ETH to mint an NFT The owner of the contract can withdraw the ETH NFT can be of type: Pug, Shiba Inu, St.Bernard -The different dogs/nft will have different rarity: -Pug has 10% probability to be minted, Shiba 30%, St. Bernard 60%."
        }
      ]
    },
    "kind": "user",
    "methods": {},
    "version": 1
  },
  "storageLayout": {
    "storage": [
      {
        "astId": 285,
        "contract": "contracts/RandomIpfsNft.sol:RandomIpfsNft",
        "label": "_name",
        "offset": 0,
        "slot": "0",
        "type": "t_string_storage"
      },
      {
        "astId": 287,
        "contract": "contracts/RandomIpfsNft.sol:RandomIpfsNft",
        "label": "_symbol",
        "offset": 0,
        "slot": "1",
        "type": "t_string_storage"
      },
      {
        "astId": 291,
        "contract": "contracts/RandomIpfsNft.sol:RandomIpfsNft",
        "label": "_owners",
        "offset": 0,
        "slot": "2",
        "type": "t_mapping(t_uint256,t_address)"
      },
      {
        "astId": 295,
        "contract": "contracts/RandomIpfsNft.sol:RandomIpfsNft",
        "label": "_balances",
        "offset": 0,
        "slot": "3",
        "type": "t_mapping(t_address,t_uint256)"
      },
      {
        "astId": 299,
        "contract": "contracts/RandomIpfsNft.sol:RandomIpfsNft",
        "label": "_tokenApprovals",
        "offset": 0,
        "slot": "4",
        "type": "t_mapping(t_uint256,t_address)"
      },
      {
        "astId": 305,
        "contract": "contracts/RandomIpfsNft.sol:RandomIpfsNft",
        "label": "_operatorApprovals",
        "offset": 0,
        "slot": "5",
        "type": "t_mapping(t_address,t_mapping(t_address,t_bool))"
      },
      {
        "astId": 1273,
        "contract": "contracts/RandomIpfsNft.sol:RandomIpfsNft",
        "label": "_tokenURIs",
        "offset": 0,
        "slot": "6",
        "type": "t_mapping(t_uint256,t_string_storage)"
      },
      {
        "astId": 154,
        "contract": "contracts/RandomIpfsNft.sol:RandomIpfsNft",
        "label": "_owner",
        "offset": 0,
        "slot": "7",
        "type": "t_address"
      },
      {
        "astId": 2096,
        "contract": "contracts/RandomIpfsNft.sol:RandomIpfsNft",
        "label": "s_requestToSender",
        "offset": 0,
        "slot": "8",
        "type": "t_mapping(t_uint256,t_address)"
      },
      {
        "astId": 2098,
        "contract": "contracts/RandomIpfsNft.sol:RandomIpfsNft",
        "label": "s_tokenCounter",
        "offset": 0,
        "slot": "9",
        "type": "t_uint256"
      },
      {
        "astId": 2111,
        "contract": "contracts/RandomIpfsNft.sol:RandomIpfsNft",
        "label": "s_tokenUris",
        "offset": 0,
        "slot": "10",
        "type": "t_array(t_string_storage)3_storage"
      },
      {
        "astId": 2113,
        "contract": "contracts/RandomIpfsNft.sol:RandomIpfsNft",
        "label": "s_mintFee",
        "offset": 0,
        "slot": "13",
        "type": "t_uint256"
      }
    ],
    "types": {
      "t_address": {
        "encoding": "inplace",
        "label": "address",
        "numberOfBytes": "20"
      },
      "t_array(t_string_storage)3_storage": {
        "base": "t_string_storage",
        "encoding": "inplace",
        "label": "string[3]",
        "numberOfBytes": "96"
      },
      "t_bool": {
        "encoding": "inplace",
        "label": "bool",
        "numberOfBytes": "1"
      },
      "t_mapping(t_address,t_bool)": {
        "encoding": "mapping",
        "key": "t_address",
        "label": "mapping(address => bool)",
        "numberOfBytes": "32",
        "value": "t_bool"
      },
      "t_mapping(t_address,t_mapping(t_address,t_bool))": {
        "encoding": "mapping",
        "key": "t_address",
        "label": "mapping(address => mapping(address => bool))",
        "numberOfBytes": "32",
        "value": "t_mapping(t_address,t_bool)"
      },
      "t_mapping(t_address,t_uint256)": {
        "encoding": "mapping",
        "key": "t_address",
        "label": "mapping(address => uint256)",
        "numberOfBytes": "32",
        "value": "t_uint256"
      },
      "t_mapping(t_uint256,t_address)": {
        "encoding": "mapping",
        "key": "t_uint256",
        "label": "mapping(uint256 => address)",
        "numberOfBytes": "32",
        "value": "t_address"
      },
      "t_mapping(t_uint256,t_string_storage)": {
        "encoding": "mapping",
        "key": "t_uint256",
        "label": "mapping(uint256 => string)",
        "numberOfBytes": "32",
        "value": "t_string_storage"
      },
      "t_string_storage": {
        "encoding": "bytes",
        "label": "string",
        "numberOfBytes": "32"
      },
      "t_uint256": {
        "encoding": "inplace",
        "label": "uint256",
        "numberOfBytes": "32"
      }
    }
  }
}